:020000040800F2
:1000000000000120C5020008CB020008CF02000852
:1000100041030008450300088D03000800000000AC
:10002000000000000000000000000000D5030008F0
:10003000D903000800000000DD030008891F000844
:10004000F1030008F1030008F1030008F1030008C0
:10005000F1030008F1030008E1160008FD1600088E
:10006000F1030008F1030008F1030008F1030008A0
:10007000F1030008F1030008F1030008F103000890
:10008000F1030008F1030008F1030008000000007C
:10009000000000000000000000000000F103000864
:1000A000F1030008F1030008F1030008F103000860
:1000B00059200008F1210008F1030008F1030008AD
:1000C000F1030008F1030008F1030008F103000840
:1000D000F1030008F1030008F1030008000000002C
:1000E000F1030008F1030008F1030008000000001C
:1000F000000000000000000000000000F103000804
:1001000000000000F1030008F1030008F1030008FB
:1001100000000000000000000000000000000000DF
:10012000F1030008F1030008F1030008F1030008DF
:10013000F1030008000000000000000000000000C3
:10014000000000000000000000000000F1030008B3
:10015000F1030008F1030008F1030008F1030008AF
:10016000F1030008F1030008000000000000000097
:10017000000000000000000000000000000000007F
:1001800000000000F1030008000000000000000073
:10019000F103000800B583B000F040FE384B394A47
:1001A0001360394A1360394900E02146384B9942BF
:1001B0000BD20A684B6801F10C0488689842F4D9A4
:1001C0001168196004330432F8E72E4B1A68314B7A
:1001D0009A4200D0FEE72C4B1A682F4B9A42F9D175
:1001E000274B2E4A13602E4A13602E4B05E0002049
:1001F000106004329342FAD80B462B4A934204D241
:10020000194651F8082B5B68F4E7244B1B6813B9B7
:10021000234B1B6803B1FEE702F0A2F8694601A870
:1002200000F08EFD214C224BE41AA4100025AC42B4
:1002300014DC204C204BE41AA4100025AC4213DC43
:100240000099019802F094F805461C4C1C4BE41AE6
:10025000A410002C0EDC284600F044FD144B53F88B
:10026000253098470135E2E7134B53F8253098477E
:100270000135E3E7013C124B53F824309847E8E797
:10028000BABADECA0000002078000020F40300089B
:100290000C04000878563412325476987C00002002
:1002A000580200200C0400081C0400081C0400086C
:1002B0001C0400081C0400081C0400081C0400089E
:1002C0001C04000808B5FFF765FF00BEFEE71EF03E
:1002D000040F0CBFEFF30880EFF309807146414A29
:1002E00010472DE9F04182B004468846124B5E6B00
:1002F0009F6B9D6A1B6B13F0020F03D00E4BDB6AE2
:10030000002B0CDB0D4800F02DFDCDF800803B46A6
:1003100032462946204600F08DFD00BEFEE74BF632
:10032000AB6100F001FE0028ECD0034B4FF000421F
:10033000DA6202B0BDE8F08100ED00E0482E00086E
:1003400000BEFEE71EF0040F0CBFEFF30880EFF3D2
:1003500009807146244A10472DE9F04182B00446D5
:100360008846084B5E6B9F6B9D6A074800F0FAFC5D
:10037000CDF800803B4632462946204600F05AFD23
:1003800000BEFEE700ED00E0582E00081EF0040F4E
:100390000CBFEFF30880EFF309807146134A104752
:1003A0002DE9F04182B004468846084B5E6B9F6B96
:1003B0009D6A074800F0D6FCCDF800803B463246E7
:1003C0002946204600F036FD00BEFEE700ED00E0C5
:1003D000642E000800BEFEE700BEFEE700BEFEE79A
:1003E00070470000E302000859030008A103000859
:0403F00000BEFEE766
:1003F40008190308000000207C00002008190308E5
:1004040000000010000000107C0000205C020020AE
:080414000000001000000010C0
:1004200010B50446074B1868074BA3FB0030800942
:1004300000F090F8002221464FF0FF3000F044F821
:10044000002010BD0C000020D34D621008B50B4BEE
:100450001A6842F400721A601A6842F480621A60E4
:100460001A6842F480721A60032000F00FF80F201F
:10047000FFF7D6FF01F080FF002008BD003C0240DE
:10048000014B1868704700BF5002002010B50446A9
:10049000C31E042B0FD80A4AD36823F4E0631B045D
:1004A0001B0C240204F4E064234343F0BF6343F4D1
:1004B0000033D36010BDA421024800F049FCEAE7F4
:1004C00000ED00E0782C000870B505460C46164695
:1004D0000F2A25D80F2C28D81B4BDB68C3F3022327
:1004E000C3F10702042A28BF0422191D062921D9B5
:1004F000033B4FF0FF3101FA02F224EA02049C4070
:1005000001FA03F326EA03063443002D14DB240129
:10051000E4B205F1604505F5614585F8004370BD1D
:10052000BC210A4800F014FCD4E7BD21074800F0C4
:100530000FFCD1E70023DCE705F00F052401E4B24E
:10054000034B5C55EBE700BF00ED00E0782C0008A2
:1005500014ED00E00138B0F1807F0AD2064B5860FC
:10056000064AF02182F823100020986007221A60C2
:1005700070470120704700BF10E000E000ED00E090
:1005800010B50446042800D038B9042C0BD0094A11
:10059000136823F00403136010BD40F2B311064842
:1005A00000F0D6FBF1E7034A136843F0040313603D
:1005B000F2E700BF10E000E0782C000830B583B00F
:1005C000044603680F2B29D8236813F0010F3DD090
:1005D0006368012B01D9052B25D1A34B9B6803F040
:1005E0000C03042B29D0A04B9B6803F00C03082BB1
:1005F0001ED022799D4B1A706368002B50D0FFF7F4
:100600003FFF0546984B1B6813F4003F1ED1FFF7D0
:1006100037FF401B6428F5D90320E3E1F521944816
:1006200000F096FBD0E7FA21914800F091FBD4E767
:100630008D4B5B6813F4800FDBD08B4B1B6813F47E
:10064000003F03D06368002B00F0C981236813F0DA
:10065000020F5DD0E368012B31D823691F2B34D8FA
:10066000814B9B6813F00C0F3AD07F4B9B6803F0D3
:100670000C03082B2FD0E368002B74D07D4B012294
:100680001A60FFF7FDFE0546774B1B6813F0020F5B
:100690005AD1FFF7F5FE401B0228F5D90320A1E14E
:1006A000FFF7EEFE0546704B1B6813F4003FCDD0FC
:1006B000FFF7E6FE401B6428F5D9032092E14FF4D2
:1006C00096716B4800F044FBC7E740F22D11684873
:1006D00000F03EFBC4E7644B5B6813F4800FCAD1A3
:1006E000614B1B6813F0020F04D0E368012B01D0AB
:1006F000012077E15C48036823F0F8032169F822C0
:1007000092FAA2F2B2FA82F201FA02F21343036001
:10071000236813F0080F50D06369012B35D8636943
:10072000002B38D0544B01221A60FFF7A9FE054672
:100730004D4B5B6F13F0020F3FD1FFF7A1FE401B43
:100740000228F5D903204DE14748036823F0F80358
:100750002169F82292FAA2F2B2FA82F201FA02F2C6
:1007600013430360D4E7434B00221A60FFF788FE6F
:1007700005463D4B1B6813F0020FC9D0FFF780FE02
:10078000401B0228F5D903202CE140F26D113848B6
:1007900000F0DEFAC3E7384B00221A60FFF770FE64
:1007A0000546314B5B6F13F0020F06D0FFF768FE72
:1007B000401B0228F5D9032014E1236813F0040F2D
:1007C00060D0A368012B01D9052B1FD10023019311
:1007D000254B1A6C42F080521A641B6C03F0805354
:1007E0000193019B254A136843F480731360FFF75C
:1007F00047FE0546214B1B6813F4807F0CD1FFF7A1
:100800003FFE401B0228F5D90320EBE040F2971190
:10081000174800F09DFAD9E7227A194B1A70A3689D
:1008200083B1FFF72DFE05460F4B1B6F13F0020F30
:1008300028D1FFF725FE401B41F288339842F3D9B7
:100840000320CFE0FFF71CFE0546074B1B6F13F09C
:10085000020F17D0FFF714FE401B41F28833984275
:10086000F3D90320BEE000BF003802400238024046
:10087000BC2C000800004742800E47420070004038
:1008800070380240A369022B39D8A369002B00F00D
:10089000A880564A926802F00C02082A00F0A48050
:1008A000022B40F08880E36913B1B3F5800F2CD19F
:1008B000236A3F2B2FD8636A323BB3F5BF7F30D812
:1008C000A36A022B05D0042B03D0062B01D0082BE2
:1008D0002DD1E36A043B0B2B2FD8454B00221A6025
:1008E000FFF7CEFD0546414B1B6813F0007F2AD071
:1008F000FFF7C6FD401B0228F5D9032072E04FF434
:10090000E6713C4800F024FABFE740F2D5113948BF
:1009100000F01EFACCE74FF4EB71364800F018FAFD
:10092000C9E740F2D711334800F012FAC8E74FF494
:10093000EC71304800F00CFACBE740F2D9112D48A9
:1009400000F006FAC9E7E369226A1343616A47F6D1
:10095000C07292FAA2F2B2FA82F201FA02F21343E0
:10096000A26A5208013A4FF4403191FAA1F1B1FA6A
:1009700081F18A401343E16A4FF0706292FAA2F269
:10098000B2FA82F201FA02F21343184A5360184B8A
:1009900001221A60FFF774FD0446144B1B6813F024
:1009A000007F06D1FFF76CFD001B0228F5D903205C
:1009B00018E0002016E00E4B00221A60FFF760FDE1
:1009C00004460A4B1B6813F0007F06D0FFF758FD62
:1009D000001B0228F5D9032004E0002002E00120DA
:1009E00000E0002003B030BD0120FBE700380240EA
:1009F00060004742BC2C00081F4B9B6803F00C03AF
:100A0000082B36D11C4B586800F03F005B6813F48C
:100A1000800F1ED0194AB2FBF0F2174B586847F608
:100A2000C073184093FAA3F3B3FA83F3D84000FBE2
:100A300002F0114B5B6803F440334FF4403292FAFA
:100A4000A2F2B2FA82F2D34001335B00B0FBF3F0C2
:100A500070470A4AB2FBF0F2074B586847F6C0737A
:100A6000184093FAA3F3B3FA83F3D84000FB02F0E3
:100A7000DFE70248704700BF003802400024F4005E
:100A800070B504460D460368013B0E2B11D8072DA7
:100A900015D88C4B1B6803F00F03AB4215D2EBB299
:100AA000884A1370136803F00F03AB420DD0012086
:100AB00070BD40F23721844800F04AF9E7E74FF46F
:100AC0000E71814800F044F9E3E7236813F0020F48
:100AD00018D0A3687BB1802B0DD0902B0BD0A02B0E
:100AE00009D0B02B07D0C02B05D0D02B03D0E02BE2
:100AF00001D0F02B37D1754A936823F0F003A16839
:100B00000B439360236813F0010F73D06368032BCA
:100B10002FD86368012B32D09A1E012A36D96B4A2E
:100B2000126812F0020F00F0CA8068498A6822F049
:100B3000030213438B60FFF7A3FC06466368012B97
:100B40002BD0022B38D0032B45D0604B9B6813F081
:100B50000C0F4FD0FFF794FC801B41F28833984272
:100B6000F3D90320A4E740F24F21574800F0F0F8F2
:100B7000C1E740F25621544800F0EAF8C9E7534A69
:100B8000126812F4003FD0D1012091E74F4A126859
:100B900012F0007FC9D101208AE74C4B9B6803F01B
:100BA0000C03042B26D0FFF76BFC801B41F288332B
:100BB0009842F2D903207BE7444B9B6803F00C0377
:100BC000082B17D0FFF75CFC801B41F2883398425A
:100BD000F2D903206CE73D4B9B6803F00C030C2B10
:100BE00008D0FFF74DFC801B41F288339842F2D9C0
:100BF00003205DE7334B1B6803F00F03AB4209D9B9
:100C0000EAB2304B1A701B6803F00F03AB4201D0FD
:100C100001204DE7236813F0040F14D0E3685BB1A3
:100C2000B3F5805F08D0B3F5A05F05D0B3F5C05F22
:100C300002D0B3F5E05F36D1244A936823F4E05341
:100C4000E1680B439360236813F0080F15D0236904
:100C50005BB1B3F5805F08D0B3F5A05F05D0B3F505
:100C6000C05F02D0B3F5E05F23D1184A936823F444
:100C70006043216943EAC1039360FFF7BDFE134B54
:100C80009B6803F0F003F02292FAA2F2B2FA82F229
:100C9000D3400F4AD35CD8400E4B18600F20FFF7AB
:100CA000BFFB002004E74FF42D71074800F050F817
:100CB000C2E740F2BB21044800F04AF8D5E7012022
:100CC000F6E600BF003C0240BC2C000800380240A1
:100CD000AC2C00080C000020014B1868704700BFC6
:100CE0000C000020FEE7000008B5034800F052F8B1
:100CF0000120FFF7F7FF00BFEC2C000808B5034602
:100D00000C4A12685AB10B4A1068033323F00303EC
:100D10000344094A934206D8064A136008BD054AAF
:100D200006491160EFE701F029FB0C2303604FF047
:100D3000FF30F3E78000002000FC00205C02002070
:100D400001230360014B0B60704700BF04000020CB
:100D500008B50A460146024800F004F8FFF7C4FF50
:100D6000002D00080FB400B583B004AB53F8042B7A
:100D700001938021064801F03BFB002803DD01467A
:100D8000034800F047F803B05DF804EB04B0704787
:100D90008800002010B5044601F0F6FA014620460E
:100DA00000F038F80121024800F034F810BD00BF0F
:100DB000C42D00082DE9F04385B004460F46435684
:100DC0000BB10E461EE0042528462146ABBE044664
:100DD000384605B0BDE8F08314F9011B04AA1A4493
:100DE00002F8101C0133AB42F6D304AA13440022CC
:100DF00003F8102C4FF00408E94640464946ABBEC4
:100E00008046761B002EE3D03546102E28BF1025D5
:100E10000023E8E708B5FFF7CDFF08BD08B500F0EF
:100E200093F8024A024B9A6008BD00BF0000000818
:100E300000ED00E0F8B504460D4617461E4627486B
:100E4000FFF790FF21682648FFF78CFF616825486F
:100E5000FFF788FFA1682448FFF784FFE168234873
:100E6000FFF780FF21692248FFF77CFF6169214875
:100E7000FFF778FFA1692048FFF774FFE1691F4879
:100E8000FFF770FF1E48FFF76DFF29461D48FFF76B
:100E900069FF1D4CE16A1D48FFF764FF216B1C4888
:100EA000FFF760FFE16B1B48FFF75CFF15F0800F59
:100EB0000AD115F4004F0CD11748FFF753FF0699DC
:100EC0001648FFF74FFFF8BD39461548FFF74AFFB0
:100ED000EFE731461348FFF745FFEDE72C2D0008FB
:100EE0003C2D00084C2D00085C2D00086C2D0008DE
:100EF0007C2D00088C2D00089C2D0008AC2D0008CE
:100F0000BC2D0008C82D000800ED00E0D82D000819
:100F1000E82D0008F82D0008282E0008302E0008C3
:100F2000082E0008182E000883691A888A4201D00A
:100F3000002070470268033A012A03D80233836114
:100F400001207047002070470C4B1A6842F00102E4
:100F50001A60002199601A6822F0847222F48032AB
:100F60001A60074A5A601A6822F480221A60D9600F
:100F7000044B4FF000629A60704700BF0038024097
:100F80001030002400ED00E0224B9B6803F00C03BE
:100F9000042B14D0082B16D01BB11F4B1F4A1A600C
:100FA00002E01D4B1D4A1A601A4B9B68C3F30313E2
:100FB0001B4AD15C184A1368CB4013607047164B2C
:100FC000164A1A60F0E7134B5A685B6803F03F0358
:100FD00012F4800F13D0114AB2FBF3F20D4B5B6891
:100FE000C3F3881303FB02F30A4A5268C2F30142B7
:100FF00001325200B3FBF2F3074A1360D4E7074A09
:10100000B2FBF3F2034B5B68C3F3881303FB02F3F9
:10101000EAE700BF003802400C0000200024F40082
:10102000742E000810B5124B1B7863B91149124891
:1010300000F096FF0E4B01221A70104B1B78DBB2AA
:10104000322B12D010BD00F083FF0C4C2378DBB2A2
:1010500040080B4A42F823000649074800F080FF89
:1010600023780133DBB22370E7E700BFEAE700BF74
:10107000D601002089150008A0860100D5010020B6
:101080000C01002008B5224B1B78012B02D0022B4B
:1010900039D008BD4FF6086000F0D7FE012000F0FF
:1010A000A3FF4FF6045000F0D0FE012000F09CFF9B
:1010B0004FF6063000F0C9FE012000F095FF4FF218
:1010C000FF7000F0C2FE012000F08EFF4EF6FF70B0
:1010D00000F0BBFE012000F087FF4DF6067000F027
:1010E000B4FE012000F080FF4BF6047000F0ADFE6E
:1010F000012000F079FF47F6087000F0A6FE0120FD
:1011000000F072FFC5E7002000F09FFEC1E700BFBE
:101110000A01002008B5224B1B78012B02D0022BBC
:1011200039D008BD4FF6106000F08FFE012000F0AE
:101130005BFF4FF6205000F088FE012000F054FFC6
:101140004FF6603000F081FE012000F04DFF4FF2BD
:10115000FF7000F07AFE012000F046FF4EF6FF70AF
:1011600000F073FE012000F03FFF4DF6607000F0CC
:101170006CFE012000F038FF4BF6207000F065FE99
:10118000012000F031FF47F6107000F05EFE0120F4
:1011900000F02AFFC5E7002000F057FEC1E700BFBE
:1011A0000A01002008B500F01DFD0021084600F0EE
:1011B0002DFD0121002000F029FD0C21032000F06D
:1011C00025FD0E21032000F021FD0021022000F06A
:1011D0001DFD0121022000F019FD00F0A3FD0222F7
:1011E0000421002000F034FB02220521002000F041
:1011F0002FFB02220621002000F02AFB02220721F9
:10120000002000F025FB00231A460521184600F0B7
:1012100065FB00231A460721184600F05FFB0122F8
:101220000421002000F0BEFB05220421002000F074
:1012300055FC05221146002000F050FC0522062135
:10124000002000F04BFC05220721002000F046FCA6
:1012500001221146002000F0FBFA012202210020A9
:1012600000F0F6FA01220321002000F0F1FA00223A
:101270001146104600F0ECFA01220021084600F069
:1012800091FB00231A460121184600F027FB00239A
:101290001A460221184600F021FB00231A460321BA
:1012A000184600F01BFB00F0F3FD00F06BFD00F0B2
:1012B00049FA00F07BFE00F03FFF00F091FD0021B5
:1012C000084600F0A9F9194800F004FA0021084680
:1012D00000F0BCF90121002000F0D0F9032000F05B
:1012E000CFFC00221146062000F0DCFC0022012188
:1012F0001D2000F0D7FC002201211E2000F0D2FCAE
:101300001C2000F0ABFC1D2000F0A8FC1E2000F00B
:10131000A5FC062000F0A2FC002000F0D5FD044B47
:1013200001221A70034800F05CFA08BD251000087D
:1013300008010020D438010870B5884B1B78DBB257
:10134000182B75D01FD9452B4ED05E2B5BD1844B0B
:1013500003221A70834B1B78022B40F2D5800022A7
:101360000121104600F064FB00220221104600F02B
:101370005FFB7D4B02221A707C4800F032FA794BF9
:1013800003221A703FE00C2B3DD1754B01221A70DD
:10139000744B1B78934237D9734E1446327074499C
:1013A00049F6404000F0E6FE22462146002000F0CB
:1013B0003FFB00220221104600F03AFB6D496E48C7
:1013C00000F0C3FC022535706C4800F00AFA0022D8
:1013D0002146104600F02CFB00222946104600F062
:1013E00027FB604B1C700EE000220121104600F02C
:1013F0001FFB00220221104600F01AFB00220321ED
:10140000104600F015FB70BD00220121104600F0CF
:101410000FFB00220221104600F00AFB524B022271
:101420001A70564800F0DDF94E4B01221A70EAE7B7
:101430004B4B02221A704B4B1B78934214D8012B52
:101440003AD900220121104600F0F2FA00220221CE
:10145000104600F0EDFA0224434B1C70484800F09F
:10146000C0F9404B1C70CEE73F4E01243470404918
:1014700049F6404000F07EFE22462146002000F062
:10148000D7FA00220221104600F0D2FA39493A4830
:1014900000F05BFC02253570394800F0A2F900220B
:1014A0002146104600F0C4FA00222946104600F0FA
:1014B000BFFA2C4B1D70A6E72B4E01243470314926
:1014C00049F6404000F056FE00222146104600F04A
:1014D000AFFA22460221002000F0AAFA2549264848
:1014E00000F033FC02253570254800F07AF900221F
:1014F0002146104600F09CFA00222946104600F0D2
:1015000097FA184B1D707EE7174E012434701D4961
:1015100049F6404000F02EFE00222146104600F021
:1015200087FA22460221002000F082FA114912486F
:1015300000F00BFC022535700C4800F052F9002237
:101540002146104600F074FA00222946104600F0A9
:101550006FFA044B03221A7055E700BFD401002034
:1015600009010020080100200A010020D4780208A7
:10157000151100084E0A0100842E0008D438010815
:10158000D4D801088510000808B51F4B00221A7036
:101590001E4B1A6842F20F739A422DD91B4B1A68E0
:1015A00043F698239A4227D8002309E0012202FA41
:1015B00001F11548027822EA010202700133DBB220
:1015C000072B17D8194603F11100104A52F82020B2
:1015D000B2F5FA6FEAD30D4A52F8200040F6FC0249
:1015E0009042E3D801229A40074801781143C9B2DA
:1015F0000170E3E7FFF7A0FE0023054A1370034ADA
:101600001360044A137008BDD40100200C010020AF
:10161000D6010020D501002030B483080A4A0233E5
:1016200052F8234000F0030080000F25854024EA93
:10163000050442F8234052F823408140214342F8F8
:10164000231030BC704700BF0038014011B10129A0
:1016500008D0704708490B68012202FA00F01843CD
:101660000860704704490B68012202FA00F023EA7F
:1016700000000860704700BF003C014001290FD006
:1016800011B1022918D07047114B9968012202FA52
:1016900000F001439960DA6822EA0000D8607047E0
:1016A0000B4BD968012202FA00F00143D9609A6815
:1016B00022EA000098607047054AD168012303FAC6
:1016C00000F00143D160936818439060704700BFF9
:1016D000003C0140014B1860704700BFD80100205A
:1016E00008B5044B1B689847034A536943F001034C
:1016F000536108BDD8010020003C014008B5044BEF
:101700005B689847034A536943F00203536108BD7D
:10171000D8010020003C014010B5044601220B21F5
:10172000002000F085F9204600F050FB10BD10B5F8
:10173000044600220B21104600F07AF9204600F002
:1017400045FB10BD08B501220C21002000F080F8F7
:1017500001220B21002000F07BF800231A460B2108
:10176000184600F0BBF800231A460C21184600F07A
:10177000B5F801220C21002000F05AF9642000F095
:10178000B5FB00220C21104600F052F9032000F0B6
:10179000ADFB01220C21002000F04AF9642000F08A
:1017A000A5FB00220C21104600F042F9642000F055
:1017B0009DFB01220C21002000F03AF9782000F076
:1017C000ADFB1120FFF7B3FF0A2000F0A7FB3A2082
:1017D000FFF7ADFF0520FFF79FFF2920FFF7A7FFC9
:1017E00008BD70B506462A20FFF7A1FF0020FFF7CD
:1017F00093FF0020FFF790FF0020FFF78DFF7F2071
:10180000FFF78AFF2B20FFF792FF0020FFF784FFEE
:101810000020FFF781FF0020FFF77EFF9F20FFF7EA
:101820007BFF2C20FFF783FF00250DE036F81530F5
:101830006FEA1320DCB2E443E4B2C0B2FFF76CFFFE
:101840002046FFF769FF0135B5F5A04FEED370BD17
:10185000034620B9A1F10D00C0B202280DD9012B19
:1018600007D010B4012B17D043B1022B22D010BCEB
:101870007047881EC0B20228F3D87047144B1C680A
:1018800048000321814024EA010119601C6802FA22
:1018900000F121431960EAE70E4B1C684800032160
:1018A000814024EA010119601C6802FA00F1214319
:1018B0001960DCE7084B1868490003248C4020EAD3
:1018C00004001860186802FA01F101431960CEE7BC
:1018D00000000240000402400008024030B4044608
:1018E00020B9A1F10D00C0B2022806D9012C06D002
:1018F000012C21D044B1022C36D030BC7047881E58
:10190000C0B20228F4D8F8E72348446801258D4086
:1019100024EA0504446044688A40224342608268A5
:10192000490003248C4022EA04028260826803FAA0
:1019300001F111438160E0E71848446801258D40BA
:1019400024EA0504446044688A4022434260826875
:10195000490003248C4022EA04028260826803FA70
:1019600001F111438160C8E70D48446801258D40AD
:1019700024EA0504446044688A4022434260826845
:10198000490003248C4022EA04028260826803FA40
:1019900001F111438160B0E7000002400004024001
:1019A00000080240034620B9A1F10D00C0B2022890
:1019B0000DD9012B07D010B4012B17D043B1022B46
:1019C00022D010BC7047881EC0B20228F3D87047DE
:1019D000144BDC6848000321814024EA0101D960EE
:1019E000DC6802FA00F12143D960EAE70E4BDC68BB
:1019F00048000321814024EA0101D960DC6802FA31
:101A000000F12143D960DCE7084BD8684900032482
:101A10008C4020EA0400D860D86802FA01F1014342
:101A2000D960CEE7000002400004024000080240F6
:101A3000034620B9A1F10D00C0B202280BD9012B39
:101A400005D0012B1CD03BB1022B2DD07047881E36
:101A5000C0B20228F5D87047012A0AD0002AFAD16C
:101A60001B484369012202FA01F123EA01014161A5
:101A700070471748436902FA01F119434161704701
:101A8000012A0AD0002AE6D112484369012202FA4B
:101A900001F123EA0101416170470E48436902FAEE
:101AA00001F1194341617047012A0AD0002AD2D1BD
:101AB00009484369012202FA01F123EA0101416167
:101AC000C9E70548436902FA01F1194341617047CA
:101AD000000002400004024000080240034620B912
:101AE000A1F10D00C0B202280DD9012B07D010B40E
:101AF000012B2BD043B1022B4BD010BC7047881E5A
:101B0000C0B20228F3D87047072911D90839C9B2E1
:101B10000729F2D8304B586A89000F248C4020EAFC
:101B200004005862586A02FA01F101435962E4E77D
:101B30002948036A89000F248C4023EA04030362C6
:101B4000036A02FA01F119430162D6E7072912D9A3
:101B5000A1F10803DBB2072BCFD82049486A9B00CC
:101B60000F249C4020EA04004862486A02FA03F30A
:101B700003434B62C1E71948036A89000F248C4074
:101B800023EA04030362036A02FA01F119430162C2
:101B9000B3E7072911D90839C9B20729ADD8104BC5
:101BA000586A89000F248C4020EA04005862586A61
:101BB00002FA01F1014359629FE70948036A89006B
:101BC0000F248C4023EA04030362036A02FA01F142
:101BD0001943016291E700BF000002400004024087
:101BE00000080240084A136843F001031360064BE3
:101BF0001B685B08FBD0044B9A6822F003029A60D2
:101C00009A689A60704700BF00380240032822D8C3
:101C1000DFE800F0020A121A0F48036B012202FAF1
:101C200001F11943016370470B48436B012202FA2B
:101C300001F11943416370470748036C012202FA1E
:101C400001F11943016470470348436C012202FA11
:101C500001F11943416470470038024010B444094F
:101C6000064951F8243000F01F00012202FA00F06A
:101C7000184341F8240010BC704700BF00E100E0A9
:101C8000054B1870054B064A1A60000240F0BF6011
:101C900040F4003018607047180200200CED00E09E
:101CA0000000FA051E4B1B78033B042B36D8DFE8F7
:101CB00003F0030C17222D000A01D2B200F160409C
:101CC00000F5614080F800237047120142EA41129A
:101CD000D2B200F1604000F5614080F80023704707
:101CE000120142EA8112D2B200F1604000F5614077
:101CF00080F800237047120142EAC112D2B200F10B
:101D0000604000F5614080F8002370471201D2B2B4
:101D100000F1604000F5614080F80023704700BF8B
:101D20001802002010B500240CE0012221461046C4
:101D3000FFF78EFD0123002221461846FFF7CEFD56
:101D40000134E4B2072CF0D910BDF8B506460F46B1
:101D500000250FE0725D224102F0010221460120C0
:101D6000FFF766FE0134E4B2072CF3D97D2000F0C2
:101D7000BDF80135BD4201D20024F5E7002000F096
:101D8000A3F8F8BD104B1A6822F040021A601A68D6
:101D900022F400621A601A6822F038021A601A6887
:101DA00042F002021A601A6822F001021A601A68F0
:101DB00042F004021A601A6822F080021A601A685F
:101DC00042F040021A60704700300140034B9A68AD
:101DD000D8609A68D86880B2704700BF0030014070
:101DE00008B5012208210020FFF732FD00231A4622
:101DF00008211846FFF772FD01220A210020FFF793
:101E000027FD00231A4608211846FFF767FD012227
:101E100009210020FFF71CFD00231A46082118465F
:101E2000FFF75CFD08BD08B501220A210020FFF77D
:101E3000FFFD022000F0D8F800220A211046FFF72B
:101E4000F7FD022000F0D0F808BD38B505460F2494
:101E50000BE045FA04F202F0010208210020FFF72E
:101E6000E7FDFFF7E0FF013C64B2002CF1DA01224C
:101E700009210020FFF7DCFD022000F0B5F8002268
:101E800009211046FFF7D4FD022000F0ADF838BD5F
:101E9000024A136823F004031360704710E000E067
:101EA000044B00229A6058601A6842F001021A60DE
:101EB000704700BF10E000E0024B1868C0F300401C
:101EC000704700BF10E000E010B1012806D0704755
:101ED000054A136843F0020313607047024A13680F
:101EE00023F002031360704710E000E010B50446D1
:101EF0000120FFF7E9FF6000FFF7D2FFFFF7DCFFEB
:101F00000028FBD0044B1A6822F001021A6000225C
:101F10005A609A6010BD00BF10E000E010B50446A2
:101F20000120FFF7D1FF4FF4FA6000FB04F0FFF748
:101F3000B7FFFFF7C1FF0028FBD0044B1A6822F05F
:101F400001021A6000225A609A6010BD10E000E0A1
:101F5000024B58689B68C01A704700BF10E000E051
:101F600008B5064A136823F001031360044B196097
:101F7000FFF796FF034B01221A7008BD10E000E046
:101F80001C0200201902002008B5064B1B6823B173
:101F90009847054B1B78012B00D008BD014B002250
:101FA0001A60FAE71C020020190200204FF080435B
:101FB0001A6822F070021A601A6842F010021A6061
:101FC0001A6842F080021A601A6842F004021A602D
:101FD0001A6822F002021A60DA6822F00102DA605E
:101FE00007229A627047000010B41A4BA3FB00232B
:101FF000DB0BC3EB0344041B12E04FF080434FF6AE
:10200000FF72DA625A6942F001025A611A6842F0BC
:1020100001021A601A691A6922F001021A610B465C
:10202000591E002BE9D14FF08043DC625A6942F01F
:1020300001025A611A6842F001021A601A691A69AB
:1020400022F001021A611A6822F001021A6010BC23
:10205000704700BF0180008008B5314B1B7833B159
:10206000304B1A68304B1A602D4B00221A702E4BE1
:102070001B68012B11D92C4A1368013B13604FF0E8
:1020800080431A6922F001021A614FF6FF72DA6288
:102090005A6942F001025A6108BD234B1B68012BAB
:1020A00026D0224B1B784BB94FF08043DA6822F0E0
:1020B0000102DA601A6822F001021A601C4B1B68E8
:1020C00098474FF08042136923F001031361154BC9
:1020D0001B68FBB113464FF6FF72DA624FF0804285
:1020E000536943F0010353610D4B01221A70D3E78A
:1020F0000D4A1368013B13604FF080431A6922F0C8
:1021000001021A610B4A1268DA625A6942F001024E
:102110005A61C1E7074B1A684FF08043DA62DDE786
:1021200010000020280200202002002030020020A1
:102130002C020020240200200D4B1A6822F07002AD
:102140001A601A6842F010021A601A6842F080029F
:102150001A601A6842F004021A601A6822F0020239
:102160001A60DA6822F00102DA6007229A62704788
:1021700000040040184B1960184B01221A70184BCC
:10218000A3FB0023DB0B174A1360C3EB0343C11A05
:10219000154B196013688BB9134B1A68134BDA622D
:1021A0005A6942F001025A611A6842F001021A604B
:1021B0000E4AD36843F00103D36070470B4B4FF6D0
:1021C000FF72DA625A6942F001025A611A6842F0FB
:1021D00001021A60ECE700BF400200204402002028
:1021E000018000803C0200203802002000040040F2
:1021F00008B52E4B1B7833B12D4B1A682D4B1A6046
:102200002A4B00221A702B4B1B68012B10D9294A2C
:102210001368013B1360284B1A6922F001021A610E
:102220004FF6FF72DA625A6942F001025A6108BD44
:10223000204B1B68012B23D0204B1B7843B91E4B2E
:10224000DA6822F00102DA601A6822F001021A60EC
:102250001B4B1B689847184A136923F0010313614D
:10226000134B1B68EBB113464FF6FF72DA62124A4A
:10227000536943F0010353610C4B01221A70D6E7F6
:102280000C4A1368013B13600B4B1A6922F00102E0
:102290001A610C4A1268DA625A6942F001025A6104
:1022A000C5E7084B1A68044BDA62E0E7110000202A
:1022B0003C020020340200200004004044020020C0
:1022C000400200203802002070B594B00024019430
:1022D000204B1A6C42F080521A641B6C03F080533E
:1022E0000193019B02941C4B1A6842F440421A600D
:1022F0001B6803F440430293029B01230893099354
:102300004FF480030F93102310934FF4A87311938D
:10231000042612960723139302250E9508A8FEF7AC
:102320004DF90F230393049505944FF480530693BE
:102330000794294603A8FEF7A3FBFEF7CDFC074B45
:10234000A3FB00308009FEF705F93046FEF718F9C7
:1023500014B070BD0038024000700040D34D6210D0
:1023600008B5FEF773F8FFF7AFFFFEF70DFE08BDE7
:1023700008B5FEF717FFFEE770470000014B18682D
:10238000704700BF14000020034613F8012B002AF9
:10239000FBD1181A0138704730B5141E05469BB0A2
:1023A000184605DA8B232B604FF0FF301BB030BD91
:1023B0004FF40273ADF80C3014BF04F1FF33234621
:1023C000029305934FF6FF7300910491ADF80E3020
:1023D00002461E9B6946284600F072F8431CBCBFAB
:1023E0008B232B60002CE1D0009B00221A70DDE7CC
:1023F00007B5009313460A46014603480068FFF7F5
:10240000CBFF03B05DF804FB140000202DE9F0477A
:102410008E689E4282460C469046994637D88A89F5
:1024200012F4906F31D0256809696F1A656902232B
:1024300005EB450595FBF3F509F101033B449D428E
:1024400038BF1D46530530D5294600F07BFB0646B4
:1024500050B90C23CAF80030A38943F04003A3818C
:102460004FF0FF30BDE8F0873A46216900F0F8FAF6
:10247000A38923F4906343F08003A38126616561FF
:102480003E44ED1B2660A5604E464E4500D94E46A3
:1024900032464146206800F0EEFAA3689B1BA36019
:1024A00023681E4426600020DCE72A4600F0A4FBD7
:1024B00006460028E2D12169504600F0F5FAC8E747
:1024C0002DE9F04F9DB0804603938B891D060C4685
:1024D00016460FD50B696BB9402100F033FB206025
:1024E000206128B90C23C8F800304FF0FF30C7E056
:1024F000402363610023099320238DF82930302382
:102500008DF82A304FF0010B37463D4615F8013B58
:102510000BB1252B3ED1B7EB060A0BD05346324602
:1025200021464046FFF772FF013000F0A480099B6E
:10253000534409933B78002B00F09D8000234FF01B
:10254000FF32CDE90523049307938DF853301A9396
:102550002F46052217F8011B4F4800F031FA049B63
:10256000D0B9D90644BF20228DF853201A0744BFA2
:102570002B228DF853202A782A2A15D0079A2F4625
:1025800000200A25394611F8013B303B092B4DD973
:10259000B8B10FE02F46B8E73F4A801A0BFA00F0B7
:1025A000184304903D46D3E7039A111D1268039126
:1025B000002A01DB079204E0524243F00203079233
:1025C00004933B782E2B0CD17B782A2B33D1039BA1
:1025D0001A1D1B680392002BB8BF4FF0FF33023760
:1025E00005932E4D39780322284600F0E9F938B1D9
:1025F0004023401B03FA00F0049B0343013704937C
:10260000397827488DF8281006227E1C00F0D8F96A
:10261000002838D0234B13BB039B073323F0070359
:1026200008330393099B4B4409936DE705FB023282
:1026300001200F46A6E700230137059319460A2516
:10264000384610F8012B303A092A03D9002BC8D09C
:102650000591C6E705FB012101230746F0E703AB1F
:1026600000932246104B04A94046AFF30080B0F11E
:10267000FF3F8146D6D1A3895B063FF536AF099867
:102680001DB0BDE8F08F03AB00932246064B04A9B2
:10269000404600F081F8EAE7D4180308DA18030886
:1026A000DE180308000000000D2400082DE9F047A3
:1026B00091461F468A680B69DDF820809342B8BFB7
:1026C0001346C9F8003091F8432006460C4612B173
:1026D0000133C9F800302368990642BFD9F80030A9
:1026E0000233C9F80030256815F0060507D104F15A
:1026F000190AE368D9F800209B1AAB4228DC94F849
:1027000043302268003318BF012392062DD404F110
:10271000430239463046C047013020D02368E5687F
:10272000D9F8002003F00603042B08BFAD1AA368F4
:1027300022690CBF25EAE57500259342C4BF9B1AA8
:10274000ED184FF000091A344D451AD1002008E069
:102750000123524639463046C047013003D14FF07D
:10276000FF30BDE8F0870135C3E7E1185A1C30207F
:1027700081F84300224494F8451082F84310023354
:10278000C5E70123224639463046C0470130E6D02E
:1027900009F10109D8E700002DE9F04301F1430CEC
:1027A0000C46097E85B06E291746064698460C9A57
:1027B00000F0B38022D8632936D00AD8002900F06F
:1027C000B980582900F0838004F1420584F8421052
:1027D00032E0642901D06929F6D120681368050622
:1027E00003F104012AD51B681160002B03DA2D22A6
:1027F0005B4284F843206F480A2239E0732900F0D5
:102800009D8008D86F2920D07029DDD1236843F03E
:102810002003236003E0752917D07829D4D17823C9
:1028200084F84530644855E01368191D1B68116031
:1028300004F1420584F8423001238CE01B681160EA
:1028400010F0400F18BF1BB2CFE713682568181DA2
:102850001060280601D51B6802E06806FBD51B88BE
:1028600054486F2914BF0A220822002184F843101B
:102870006568A560002DC0F29580216821F00401F3
:102880002160002B3DD1002D40F08E806546082A46
:102890000BD12368DB0708D5236962689A42DEBF43
:1028A000302305F8013C05F1FF35ACEB050323614E
:1028B000CDF800803B4603AA21463046FFF7F6FEDE
:1028C00001304DD14FF0FF3005B0BDE8F0833948FD
:1028D00084F84510136821681D1D1B6815600A06E1
:1028E0000BD5CA0744BF41F0200121601BB9226803
:1028F00022F0200222601022B7E74D0648BF9BB2AB
:10290000EFE76546B3FBF2F102FB1133C35C05F858
:10291000013D0B460029F5D1B9E7136825686169C7
:10292000181D106028061B6801D5196002E06A06B0
:10293000FBD51980002323616546B9E71368191D8B
:1029400011601D6862680021284600F039F808B15E
:10295000401B606063682361002384F84330A7E76D
:1029600023692A4639463046C0470130AAD0236839
:102970009B0713D4E068039B9842B8BF1846A3E7AF
:1029800001234A4639463046C04701309AD00135C6
:10299000E368039A9B1AAB42F2DCEBE7002504F1F3
:1029A0001909F5E7002BACD1037884F8423004F123
:1029B00042056CE7E5180308F6180308000000005C
:1029C00001F0FF01102A2BDB10F0070F08D010F8E0
:1029D000013B013A8B422DD010F0070F42B3F6D1E4
:1029E000F0B441EA012141EA014122F007047FF0FD
:1029F00000070023F0E80256083C85EA010586EA54
:102A0000010685FA47F5A3FA87F586FA47F6A5FA8F
:102A100087F68EB9EED1F0BC01F0FF0102F007029B
:102A200032B110F8013B013A83EA010313B1F8D146
:102A30000020704701387047002D06BF3546033827
:102A4000073815F0010F07D1013015F4807F02BF60
:102A5000013015F4C03F0130F0BC0138704700BFB1
:102A600010B5431E0A44914200D110BD11F8014B2C
:102A700003F8014FF7E7884210B501EB020307D8CE
:102A8000421E99420AD011F8014B02F8014FF8E7B3
:102A90008342F5D98118D21AD34200D110BD13F860
:102AA000014D01F8014DF7E738B50546002945D03D
:102AB00051F8043C0C1F002BB8BFE41800F0D2F80A
:102AC0001F4A1368104633B9636014602846BDE896
:102AD000384000F0C8B8A3420CD92168621893426C
:102AE00004BF1A685B68636004BF52182260046008
:102AF000ECE713465A680AB1A242FAD91968581885
:102B0000A0420BD120680144581882421960DDD1DF
:102B1000106852685A6001441960D7E702D90C2343
:102B20002B60D3E7206821188A4204BF11685268DD
:102B3000626004BF091821605C60C7E738BD00BF50
:102B40004802002070B5CD1C25F0030508350C2D7A
:102B500038BF0C25002D064601DBA94203D90C2302
:102B60003360002070BD00F07DF8214A14682146D2
:102B700091B9204C23681BB9304600F063F82060FF
:102B80002946304600F05EF8431C24D10C23336004
:102B9000304600F068F8E4E70B685B1B18D40B2B99
:102BA0000FD90B60CD50CC18304600F05CF804F122
:102BB0000B00231D20F00700C31AD3D05A42E25065
:102BC000D0E78C424B6816BF636013600C46EBE79E
:102BD0000C464968CCE7C41C24F00304A04205D08D
:102BE000211A304600F02EF80130CFD02560DBE707
:102BF000480200204C020020F8B5074614460E4655
:102C000021B91146BDE8F840FFF79CBF22B9FFF794
:102C10004BFF25462846F8BD00F026F8A0420FD20B
:102C200021463846FFF78EFF05460028F2D0314690
:102C30002246FFF715FF31463846FFF735FFE9E733
:102C40003546E7E738B5064C0023054608462360BD
:102C5000FEF754F8431C02D1236803B12B6038BD42
:102C6000540200207047704751F8043C181F002B95
:102C7000BCBF0B58C01870472E2E2F737973746524
:102C80006D2F7372632F73746D333266342D6861E8
:102C90006C2F73746D3332663478785F68616C5F63
:102CA000636F727465782E630000000000000000FE
:102CB0000102030401020304060708092E2E2F73E4
:102CC000797374656D2F7372632F73746D3332660D
:102CD000342D68616C2F73746D3332663478785F8D
:102CE00068616C5F7263632E6300000061626F72E3
:102CF0007428292C2065786974696E672E2E2E0041
:102D00006173736572745F706172616D28292066EA
:102D100061696C65643A2066696C652022257322BE
:102D20002C206C696E652025640A00005374616371
:102D30006B206672616D653A0A00000020523020F7
:102D40003D2020253038580A000000002052312054
:102D50003D2020253038580A000000002052322043
:102D60003D2020253038580A000000002052332032
:102D70003D2020253038580A000000002052313212
:102D8000203D20253038580A00000000204C5220F9
:102D90003D2020253038580A0000000020504320F4
:102DA0003D2020253038580A0000000020505352A2
:102DB000203D20253038580A000000004653522F8D
:102DC0004641523A0A0000002043465352203D201B
:102DD00020253038580A00002048465352203D2014
:102DE00020253038580A00002044465352203D2008
:102DF00020253038580A00002041465352203D20FB
:102E000020253038580A0000204D4D464152203DC3
:102E100020253038580A00002042464152203D20EB
:102E200020253038580A00004D6973630A000000FD
:102E3000204C522F4558435F52455455524E3D2029
:102E4000253038580A0000005B486172644661759D
:102E50006C745D0A000000005B4275734661756C1E
:102E6000745D0A005B55736167654661756C745DDE
:102E70000A0000000000000000000000010203043E
:102E80000607080980808080807F7F7F7F7F808029
:102E9000808080808080808080808080807F808033
:102EA0007F7F7F8080808080808080807F7F7F7F29
:102EB0007F7F7F7F7F7F7E7F7F7F8080807F7F801F
:102EC00080807F7F7F7F7F7E7E7E7E7F7E7F7F7E16
:102ED0007F7F7F7F7F7F7F7F7F7F7F7F7F7F7F7F02
:102EE0007E7F7F7F7F7F7F8080807F80807F7F7FEE
:102EF0007F7F808080808080807F807F80808080D6
:102F000080808080808080808080808080818181BE
:102F100081818181818181808080808080808080AA
:102F200080807F80807F7F8080807F7F7F7F7F7FAA
:102F30007F7F8080808080807F7F807F7F7F7F7F9A
:102F40007F7F7F7F7F7F7F7F7F7F7F7F7F7F7F7F91
:102F5000807F807F80808080808080808080808073
:102F6000807F7F7F7F7F7F7F7F7F7F7F7F7E7E7F72
:102F70007F7F7F7E7F7F7F7F7F7F7F7F7F7F7F7E63
:102F80007E7E7E7E7E7E7E7F7F7F7F7F7F7F7F7F58
:102F900080808080808080807F8080808080808032
:102FA000818080808080808080808080818180801E
:102FB000808180808080808081808080808180810D
:102FC00080807F7F7F7F7F7F7F7F80808080808009
:102FD00080807F807F7F7F7F7F7E7F7F7F7F7F80FE
:102FE0008080808080808080807F7F7F7F7F7F80E7
:102FF00080807F80807F807F8080807F7F808080D6
:1030000080807F808080808080807F7F80807F7FC5
:103010007F7F7F7F7F7F7F7F7F7F808080808080BA
:103020008080807F7F7F7F7F7F7F7F7F7F7F7F7FAD
:103030007F7F7F807F807F7F7F7F7F7F7F7F7F7F9E
:10304000808080808080807F7F8080808080808082
:10305000808080807F808080808080808080808071
:103060008080808080808080807F7F808080808062
:10307000808080808080807F7F7F7F7F7F7F807F58
:103080007F80808080807F7F7F7F7F7F7F7F7F7F4B
:103090007F7F7F7F7F807F807F7F7F7F7F7F807F3D
:1030A0007F7F7F7F7F7F7F7F7E7E7F7F7E7F7E7F34
:1030B0007F7F7F7F7F7F7F7F7F7F7F7F7F7F7E7F21
:1030C0007F7F7F7F7F7F7F7F7E7F7F7F7F7F7F7E12
:1030D0007F7F7F7F7F7F7F8080808080807F7F7FFA
:1030E0007F808080808080818181808181818080DB
:1030F00081818181818181818181818080808080C5
:1031000080808080808080808080808080808080BF
:103110008080808080807F808080808080808080B0
:103120008080808080808080808080807F808080A0
:1031300080808080807F7F7F7F7F8080807F808095
:103140007F7F7F7F7F7F7F7F7F7F7F7F7F8080808C
:103150008080807F7F7F7F7F7F7F8080807F7F7F79
:103160007F7F807F7F7F7F7F7F7F7F7F7F7F7F7F6E
:10317000808080808080807F7F7F7F7F7F7F7F7F58
:10318000807F7F7F80807F807F7F7F7F807F7F8049
:1031900080808080807F80807F7F7F7F7F7F7F7F38
:1031A000807F7F8080808080808080808080808021
:1031B0008080807F80808080808080807F807F7F13
:1031C0008080807F7F7F7F7F7F7F7F7F7F7F7F7F0C
:1031D0007F7F808080808080808080807F7F7F7FF5
:1031E0007F7F7F7F7F7F80808080808080808080E5
:1031F0008080807F80807F7F7F7F7F7F7F7F7F7FDA
:103200007F7F7F7F7F7F7F7F7F7F7F7F7F7F7F7FCE
:103210007F7F7F7F7F7F7F7F7F7F7F7F7F7F7F7FBE
:103220007F7F80807F7F8080808080807F808080A3
:10323000808080808080808080808080808080808E
:10324000808080808080808080808080808080807E
:1032500080808080808080807F7F7E7E7E7E7E7E7C
:103260007F7F7F7F7F7F7F7F7F7E7F7F7F7F7F7F6F
:103270007F807F807F7F807F7F7F807F8080807F57
:103280007F7F7F807F7F7F807F7F7F7F7F7F7F804B
:10329000807F8080808080807F7F8081808180802F
:1032A0008080807F7F808080807F7F7E7E7F7F7F29
:1032B0007F7F7F80807F7E7F7F7E7E7E7E7F7F7E22
:1032C0007E7F7F7F7E7F7F7F7F807F7E7F7F80800E
:1032D0007F808080818280828180818081818181E4
:1032E0007F818280808182818181808182838081CF
:1032F0008181818283818181818281807F808180BF
:103300007E7F8080807F7F7E7F7F7E7F807D7D7ED1
:103310007E7E7D7E7C7E7F7E7D7E807F7F7F7F7ECA
:103320007F7E7F7F8080808081818081808180819D
:1033300081808180818081818081818081807F7F87
:1033400080817F8081807F8081808080818081807A
:103350007F8081807F7F7F7F7E7E7E7E7F7F7E7D80
:103360007E7E7D7D7D7C7C7C7D7D7E7E7D7D7E7E8A
:103370007D7D7E7E7D7E7E7E80807F7E7F80808064
:10338000808180808181818182828282818082822B
:10339000818282818182818181818181818180801C
:1033A00080808080807F7F80807F807F807F7F7E25
:1033B0007F7F7F7F7E7E7F7E7E7E7D7D7E7E7D7E2B
:1033C0007E7C7C7E807F7B7C7F817F807E7B80801B
:1033D0007E7E7F7E807E7D82837F7E8181827F7FF5
:1033E000828585827D8088827C82847779837F7CD8
:1033F0007977797E7D807F808282837B80827F82E5
:1034000081867F7A83858581808185897E7C837FA3
:103410007F807F7D7E807B7F837F818183868484A4
:10342000838480807C797A7978777D8182807D83BE
:103430007C7F827B8281857F838484838284888B66
:1034400085807A82828580787B7B787B7D7E7F7E9B
:10345000807E817F81817F8081817C80817D7A7E79
:10346000837B75777E7A787E827D777C7C7C7F819A
:103470008081838184868381838783818283827D27
:103480007F7F86868485808281818283807F837E20
:103490007E82847F7E8486828283817F8084818015
:1034A00083827E7E7D797A817F7B7C7C7773787B5B
:1034B0007A7B7D808383807F7C7E8181807E818416
:1034C000858182827E7E7D7E7C7B7F81817F7B7F0A
:1034D000828684838382818185858583807D8082C5
:1034E0007E7E7A7C7F7C7F7B787A7B7B7A7C7E7E1B
:1034F0007F8281818282827F818382817C7E7D7DC9
:103500007E7B7C7E7E7D7C7D7F807D7A797C7D7FED
:10351000827F7E7B7C7D7E7D7E82817F7E7E7D7EC6
:103520007F83828284848183828483818281828278
:10353000838182817F7F7D808282807F8586868273
:10354000828180817F827E7E7D7D7C7D7E7F7F7E8D
:103550007C7A7D7C7B7D807E7A7C7E7E7F81828092
:103560007F808081817E7F807F8182818081828651
:103570008586888485868484848382838582817D10
:103580007D7C7D7D7B7E7E7E7F7D7C7C7E7D7D7D6A
:103590007C7F7F7E7F7F7C7D7F7D7F7D7D7C7C7D52
:1035A0007F7D7C7C7F7E808382858181838486830E
:1035B00082828484848380818183848481817F7EEC
:1035C0007F7F7F808180807E807E7F7F7D7F7F7E0A
:1035D0007D7D7B7E807D7C7F7E797B7D7D7C7B7C21
:1035E0007C7F7E7C7E7D7E7F7D7B7E7C7C7F7D7C08
:1035F0007E7A7B807E807E8183827E817D80857FD6
:1036000088847F848C8B827D81838086767E8076A1
:1036100077767C7A7D767C898D828081847A888BAE
:103620008480767E81816F7C7B7778827E7B7D85CE
:103630008E7D83818289908A89958C84766D6B6C6E
:103640006E7779747E8E908692837A797B827B7D89
:103650007586887C6D757E7A8D8F80838C848C894D
:10366000868483878392928887878E88847C7E7EF7
:10367000756F7383756865707267758C89898C89BD
:103680008E9A917C888B8A8492886B69676E655F5D
:10369000666B717F797D89898B7F7F8784848E8D2E
:1036A000817D7E7C727B787E7C74787D83818C804A
:1036B00082878A8880868E85757C8283858A7E83D0
:1036C00097908E8D8279828886867D827E78706ED4
:1036D0006F686E647080848D878D8586838786731E
:1036E000797B7B7A7C7C7A6F767B7C84808687850D
:1036F000868E8F8F7F748178828383807D84848996
:1037000082827E82817C7A808373747B7976797DF4
:10371000746E6F787A82828287878B8B8C8889829D
:103720007E78757A78777673727272777471788230
:103730007E8386858A838C85817F7A817D88878355
:103740007E88867A8185837784878B898994908423
:10375000828683857F7E808687888C868B88868517
:103760007D7C858F8B817C837E81867F777270687C
:103770006F75757C7E7A7F82868076736F737D6EBF
:10378000717E777879817D767078807D808185897A
:10379000857F848B878483868078827F7B7A7B7B1E
:1037A0007B8289847A8890928E918E888985827AAC
:1037B0007F7D7B78767980837C7979787977777D5E
:1037C00082857C7D84878383897E76757D7D767B0B
:1037D000807D7C7F7F7F7C7C7D7A7C7A7F7E797D1B
:1037E00080858688868C8E8A85848D8C8782858468
:1037F000817B7B7E78787C7C797A808681818380EE
:1038000083888A8C8F8D8682817D7A7A76706B6AC6
:103810006D737476767376767B84888A86868281E9
:103820008585847F7D75767E84837B7A7D7D7A7FB6
:103830008181837D7B76757C7D7E7F8180868D9383
:10384000918C8D87848586807E7E7A78787A77776A
:103850007976757A7B7E8688858486868482818364
:1038600084827F7878797D7C76757A7C79787A81A4
:1038700085807C7F83888887878A89858284888100
:103880007B7A7D7D7E7C797776787A797A7B7B7C92
:103890007C81868583858B8E88878C8683848684CD
:1038A00083817F7E7F82827F80807F80818281840E
:1038B000838484838484848284828381817F7D7DE8
:1038C0007B7B7C7B7A7B7E817F7F83858582838601
:1038D00089898482808485818182817F84847F7DBF
:1038E0007B7E7E7D7C7B7B7E7E7D7E7E7F7E7C7C08
:1038F0007C7D807F7E7F817F7B7A7B7A7778797809
:10390000757273777C7C7A7A7E7D7D808184837FFB
:103910007F85847E80817F7D7A79787673757577EF
:10392000797574767B7D7E7F7D7D808080838482C7
:103930008283828383827D797A7C7C7C7B7B7C7DA5
:10394000808080818382818285878584848687893F
:10395000898989898684848280808282818182812A
:103960008283858788898B8C8D8F8C898A8A8886CB
:1039700085848485847F7C7C7F8282828384848525
:10398000868686858283838482828283827F7E7D0F
:103990007E7C7D7E7D7B7B7A79797C7D7B7A7A7B70
:1039A0007B797A7A7876787B7B7B7C7B7C7F7C7872
:1039B0007A797675767673717272717172747678BF
:1039C0007A7C7D7E7E807F7C7C7D7C7C7D7C7B7B2D
:1039D00079777878797B7D7E7F8082838484858502
:1039E000868788888687868485848586858585857B
:1039F00086868787868587898A8A8C8C8C8C8B8C37
:103A00008C8B89888889888989888685858484843F
:103A100083807F7F7F8081807F7F7E7F81818280A6
:103A20007F7F7D7D7D7D7C7C7C7A787775757678EF
:103A3000797A7B7978797A7A7977767778797A78FA
:103A4000767575757677777879787979797A7B7DF7
:103A50007C7C7C7C7D7D7E7E7C7E807F7F7D7D7E90
:103A60007D7D7D7F7F7F7F7F7F808081818282805F
:103A70008080818281838382838383828283828127
:103A800084878988898886878787888989888989BA
:103A900087888886858588888786848282828485CF
:103AA00085858685838382828382827F7F7F7E7DF8
:103AB0007C7B7B7A7A7A7B7B7A7A7A7B7C7B7D7C57
:103AC0007C7A787978797A7777767574737573728A
:103AD0007576787A7C7C797A7B7A7B7B7C7E7E803B
:103AE0007D7B7D7C7E7E7F817F7E7F7E7F818484E7
:103AF000858584868585848385858589898886846E
:103B000083818182827F7D7E7E7E7F7F80818283B2
:103B10008383838484848485868584828180808075
:103B20008384858583818181818081838484848469
:103B300083828282848585868885817F7E7E7F7F61
:103B400080807E7E7E7C7A78797A7D7F818281809A
:103B50007C7C7E7D7F7F7D7D7A797B7979747579B8
:103B600077797776757375767778767A7B797A78E0
:103B70007979787F817E7D7B7E7C7B7E7E827B7C7B
:103B80008280817D7B807E7E818689848388848516
:103B900086878B858689898B8686858085868989B7
:103BA00084878481818289858285868D87848881C6
:103BB0008880818C86888583877D797A797C787CFA
:103BC00081808079787A7A78787C7E8084807F7E24
:103BD00075767678807E828382817877797A7B7B2E
:103BE000808785837F7D7D787C80848684888783B9
:103BF0007E797A757A7F8087838280787776777806
:103C00007A7F7E7F7F7D7B7772727A7E81858380EB
:103C10007D787978787B808280827F7D786F7177FC
:103C20007E84868A8683807B817E828888908F8D41
:103C30008D867F79787F848C8B8B8A8487807B7F4D
:103C400083898C8C8D8B867F7B7D7C7E878A8D891A
:103C500082827D7670748084898784857B7A757191
:103C6000757580888B8F847E756D72727B878A8A6A
:103C700081807D7A73686B727E888A8B82776F69A8
:103C80006D747C858A8A8784807B726B6B75879064
:103C9000938C7F7B716D71758187898A8987817B20
:103CA000716F767D8F999991817B76737679858C0A
:103CB0008E8C89847C746D6E757E8C94968D8079E3
:103CC0007172777C868B8F8C88827B766E70767E25
:103CD0008E93928B7E7670727880898E918F8D868E
:103CE0007D7973757B859197978E81767075787FD6
:103CF000878B8D8B888079746F7379848F908F8791
:103D00007A6F6A6B707B8387898681786F6C686D48
:103D1000747F898B8D84796D656A6F7B84878986D2
:103D20008278736F6C7377828C8F918A7C716C6FE1
:103D300077838A908F8C8A8079737179828C92953F
:103D400097908274707179868C9192908980777245
:103D500072777F8C9294978F81766E6E76858E9433
:103D600093908A7D737171757D878F93948D7F6F2A
:103D7000676973848E93938F87786E6C6B707A8883
:103D80008F9395897B6C656773848F96928D877707
:103D90006F6968707B898F9193877668636671819C
:103DA0008C918F8B83756B68666E7D898E92918105
:103DB0007467636671818D938F8D82736A66677194
:103DC0007E8B8F918F817367646A76859095948FCF
:103DD0008477706C6E7A879397979386786D6C7101
:103DE0007D8C989B969387797270727C89979B9A49
:103DF0009485796F6E73808D9899949085766E6CAA
:103E00006F7B879497948E7F7268696D7A8892949D
:103E1000908B7F726A696C7684929491897B6E65CF
:103E2000666C778590908C867A6E68686E798592DC
:103E30009591897B6F6768707C8993948E85796F83
:103E400069696F7A8793959186796F676A737F8BBB
:103E500095968E867A706C6C717B87949690867836
:103E60006C676B737F8B94948D8479726F6E747FA3
:103E70008B96969187796E676D76839096958F86EF
:103E80007A73707076808D999A93897B716E727B4C
:103E9000859098968E847B736F7077818B979891BD
:103EA00085776E6A7077828E94928C8176706D6E53
:103EB000757E8993948E817268666B727E8A908E0D
:103EC000877F766D696C727B8792928C82736B6848
:103ED0006F78828B8F8D867E75706D70757E8992FE
:103EE000928C83766E6C747D868E919088807771CB
:103EF00071757A818C94938C82756D6D7680888EC5
:103F00009090877E767373767D848D92928B807588
:103F10006D6C75818B91918D847D757274798187BB
:103F20008E92928C8076727078838E95928D827A42
:103F30007571747A82878C8F8C867A716D6E7681BA
:103F40008C9290887E756F6D727880878A8A857F63
:103F5000756F6A6A75818C918D867A726D6E747BCD
:103F6000858B8E8E867F77706D6F79848E928F862B
:103F70007A706D6F76808A90908D8680777171747B
:103F80007F89919490887C7471737A828B8F908DE5
:103F9000837C767373777F888F918E857C7471753F
:103FA0007B848B8F8F8B827A7472747880868A8BF5
:103FB00088827A7370747B848A8C8A857D78747326
:103FC000767B82888B89847E767372757C848C8CF8
:103FD00088817C777272767C848A8C89837C757107
:103FE00071777D868B8C89827A747171757C8387F9
:103FF0008986817B757372777E858A8A87807B77D5
:1040000075767A8085888886817D7977787E8287C3
:104010008A8A87817D7B7A7B7F8487898A88837E71
:104020007C7C7C8186888A8A86827D7B7A7D80847E
:1040300086888885807A79797C818487888785805D
:104040007B79797B7E80838686837E787676797E9F
:104050008283858583807D7C7B7D80838586868643
:10406000827E7B797C8083848382817E7B7A7B7D68
:1040700080828382817F7D7B7A7A7D818585837F43
:104080007A7878797A7D808282807F7C797776777A
:104090007B81868786817B7876797D81848587861A
:1040A000837F7B7977797D8286888A86827C787A1D
:1040B0007D81858889888785827F7C7D7E818486D5
:1040C000878583807D7D7D7F818081818081807FE8
:1040D0007F7E7F80807F7F7D7D7C7C7D7D80827FF9
:1040E0007D7B797A79797C7C7D7F7E7E7C7A79761E
:1040F000787D8082838382807D7C7B7C7E7F8284CE
:104100008483817F7E7E7F7F7F848789868282828F
:1041100081818383848282838181817F7F80818585
:10412000827E7C7D7F7D7E838383807D7F7E7878A9
:104130007A7B808080817E7F7F7978797E817F81A4
:1041400084847E797A7E7E7A7B7D80838180807E86
:104150007F817E7F8484817E7F84837D7C7E858554
:10416000817F808282807E7F828585808184837D3D
:10417000797D83817E7E838784817E7F7F7B7D7E48
:10418000818482817D7C82847D787C82817D7D8436
:1041900084817E81837F7B7E828283817F817E8713
:1041A0008A7D7A7A8281797D85857D7C84867F7817
:1041B0007D807E7F8184817C84877E797C8280770C
:1041C0007C86847C787E837B777D807C7B81817D0F
:1041D000767C877E787A817F757B868479767B8111
:1041E0007D7880817B7A82847E777D8780798086E6
:1041F000847C7F8A857C787E857F7E87867E8189A8
:10420000867F787D88817C838C8A7F8087857D7797
:104210007B827D7F8B8A818085827A757C847E77A4
:104220007F8C897F7C81817A74767F797F8A868092
:1042300080847F7A7579837C747D8D8A807E80828C
:104240007A73787C787D89898484888278777B7F8B
:104250007D757F8C89868181807970767C79838A6F
:1042600088888A88807B75777F7C7A858C8988842A
:1042700080807470787C7C848B88888A887D77774E
:104280007B7E7A7C85898688837E7C7272787B7E51
:10429000868B86878982797572767D7A7E88888812
:1042A00088817D7A716F777C7E878C898788847B13
:1042B0007673797E7B818A8B8C8B827E7C7371791D
:1042C0007F838C8E8D8B87837D797478817F858CBD
:1042D0008E8F8A7F7E7E7270777B818A8E8D8985B4
:1042E0008178736F747A788087898C877D7C776E0C
:1042F0006B72767D85868885817E766E6A7175762D
:104300007C848A8C887E7B776D6C727A80888C8EB8
:104310008D878379716F757C7E828B92948E838179
:104320007C71707880878F9193918A847C74727A83
:104330007F7F848C90918A7E7E776E6F767F848A71
:104340008C8D8A817E7A706F767B7E8188908F8457
:104350007A79736C6B757F82878B8B85817D766EA6
:104360006F797D80818A918C857C7B756E707B8373
:10437000858C8F8F87837F7871707D7F80868E9408
:104380008E837D7C766F727E83888B8F8E86838111
:10439000796E737D7D7F848B918B807D79726E7059
:1043A0007B8084898C8B84827D726C71787A7E8329
:1043B0008B90897D7977706C707C82868A8E8C85F3
:1043C000837C716D757C7C838990948A807E7A73FE
:1043D000707480868A8D918C83847A716D777E7DEE
:1043E000838B9292887F7C77726E748084888C8FA6
:1043F000898180796F6A767C7D8189919085797CCD
:10440000766E6E768386888B908A807F79706C75E5
:104410007C7F878B8F9184777976716F7785888899
:104420008A908B7F7A786F6F787C84898C8F8F836A
:10443000777875706F778588868B8F897C78776FB2
:104440006F777C838A8D8F8F817677737072798492
:1044500089898C908B7C7A776D73797D878D919328
:104460008E8077777470747D878A8B9292857B7B40
:10447000746C747C80888E8F8F897C7674716F7574
:104480008186878B8F8A817A77706B737980888B2E
:104490008B8E85777272716F7881858A8A8B8C801A
:1044A0007A78706F7780858E8E8B8D837875757432
:1044B000767C828B8E8D8C877F7B7771757C8287F3
:1044C0008D908D8C8078767277757A868A8C8B8BBE
:1044D000837A787270727882868D8F8D8878727404
:1044E0007172777F86888D918D827A7A706C767CF6
:1044F00083898D8E8F877877756E7379828A8B909A
:10450000928B7F7B796F6E777E83888D908D837998
:10451000767470727B8389868A8D887F7A78706DD5
:10452000777E808A8E8C887B7575716B727A7E85BA
:1045300086898C8579757570717C7E838E8C8A8571
:1045400078777672727680878B8B8B8C8075747897
:104550007475828388938F8C82777875747780895D
:104560008C8D8D8D8B8073757A7677838A8E948F00
:10457000887F7675777677818A8D8B8A8B897B6E3B
:10458000757B7478858B8C8D88837E757376737458
:104590007E888B88888985776E767A7376858B8B13
:1045A0008B87817D736F747376838C8A8989847F0E
:1045B000776F767A757D888B8B89817E7B73727835
:1045C000797F8888888A87807D7671797D7C8186ED
:1045D000878A87817C7A7473797B808684878B84D1
:1045E0007D7B77747A7D7E8586888C87807B7976E3
:1045F000747B7F8386858B8B847D7A7A77797E82C4
:104600008688898B877E7A7977767D818588878C85
:104610008B827C7B7C79797F858886878A847B7A8C
:104620007A78797B808584868A86807B7C7B7777A5
:104630007E85858486888179777877767A7F81848C
:104640008787827A77797673777F85858586837B7E
:1046500075757677787C81848585837E77767977A2
:10466000787D8389858287817977767A7D7E838656
:10467000858483827E7C7D7D7D7E8188898484861D
:10468000837D797E838182858485858384837F8011
:104690007E7B7F828685828484817D7C7D7C7D801B
:1046A0008183858483837E7B7B797B7F81868684FF
:1046B00086847F79757B7F7D8084878380817E7D02
:1046C000797A7E7C7E8687858280817B76798081FF
:1046D0007E8184817F7D82817B7D7D7F81808382DD
:1046E0007F7F7F817E7A7D7F807E7E8181807F82D9
:1046F000817E7D7E807E7F8482828280827B797EC5
:104700007E80808184807F83817E7D7E7C7C7F84AF
:10471000848181817C7B7C7D7D7C7F81807F7F7FAC
:104720007E7C7F7E7B80807F818181807D7F7E7C9F
:104730007E81807B7D817F7C7F81837F7E84807C86
:104740007F8083817E84847D7F83817F7D7F817F65
:104750007F8487827F818181807E80838180828047
:104760007F807F81807F8082808083817F7F7D7F4B
:10477000807E818181807E827F7C7E7F807D7F8341
:104780007E7D8180807D7C7E7D7D80807F7F7D7C45
:104790007D7E7F7E7E7F7F7F7E7F7F7D80837F7C2F
:1047A0007F82817E80857F7A7F82818081837E780F
:1047B00081827C7F8283837F81847E7E817F7F7FF5
:1047C0008083818183827D787E7F7A7E8381807EF3
:1047D00080817B7B7D7E808081837F7C7F7F7D7CF1
:1047E0007E807D7C818180807B7B7E7E81818384D5
:1047F0007E80847B7D838180817F83847C7F827FB8
:1048000080818183818484807E7F82807F86858091
:1048100083807E807F8081818185847F7F81807D90
:104820007F817F82807E82807E7D7B7D7F7E7E8198
:10483000837F7E817C797E7F807F7D82817C7E808C
:104840007D7B7B7E807D7E837F7E7F7B7D7E7D8189
:104850008080817E7F817F7E7F7F7E7F7F81817F61
:104860007E8081818181807F7F8081838180807F44
:10487000817F7E7F7C7E7F7D817D7F827D7E7D7C52
:104880007E807F7F83807D7F7D7F7F7E807E7F8037
:1048900083827D817F7C7F7F808381808383807E14
:1048A0007F7F808180818182838182807F817F7F01
:1048B000808181817F81837F82807E7E7D818281F4
:1048C000807F828080827F807D7C818081838181E6
:1048D0008180807F7D7C7E7F808082827E80817CE3
:1048E000807D7B827F818381817E7D7F817C7A7FD9
:1048F0007E81827E817F7C7D7E7F7C7C817E7D81CE
:1049000081817F7F807F7D7E7E7E80817F82827EAF
:104910007F7E7E807E7E7F7E82858281807F7F7E9D
:104920007C80827E83878182837E7D7C7E817F7F87
:1049300086848084817D7A7A7F7D7F828284827F73
:1049400082817A7D7F7B8284838582827F7C7F7F68
:104950007E7E7D7E808281817E7C7F7D7D817E7F6B
:104960007F7B7D7F7F8385817D7E7D7E7D7C7F7E5D
:104970008186828281827C767A7D7E7F8586838233
:104980007D7E7F77797E7C80858483807F7C787A4A
:104990007B7D82858181827F7F7B777F7E7A838228
:1049A00082857F7E7E7A7D818180828182827D7E0A
:1049B0007F7E817D7E827D81827E817E7B838681FA
:1049C00082827E7F7B7D827F838482847F7E857EE0
:1049D000777E7F83888384867C7B807B7B7C7D84E1
:1049E000858286847F7E787C7F7F828085898180B6
:1049F000827C7B7F7F84838086827E7F7B7C7A7AC9
:104A000081827F7F7D7A807F7C807D7E807D8483B4
:104A10007B7E7C7F868483837F7A7F7F7A7B7E83A5
:104A20008686857E7C7D7B7C7F7F7F82828283837E
:104A3000817875797C85858188867C7D7E7C7A7697
:104A40007D8A8882848181817D7E7E7A7B84868551
:104A50008583807A777C84847D8085807E827E7E5B
:104A60007E7B8384797D807B7D81817E7A7D82805F
:104A70007E7E7E7B7C7E7F84817C80817C7B7C7B58
:104A80008280808A847E807E7E837F7C8180838812
:104A90008280867D757A80807F7E8386817D838516
:104AA00079757C83817F818485817F84847D7A7D13
:104AB0007E80838185877F7B7E7B797F8180837FFA
:104AC0007E88847E827C7B7E7C818787827D7979EB
:104AD00079787E7E7F7A7C88847C7B7C77747A850B
:104AE0008B867E7F7C77747C83817F7B8189827CCF
:104AF0007E7974787E878C8883857B727A7C7E81D0
:104B00008387868887807C77727880858B938C8575
:104B10007D747D7D787C848986878C8A7E706F7AAF
:104B20007F84878E91867B747E8179797F87898364
:104B3000858E837171797E8183898F877E767B8371
:104B400079787E84878280898B776F7B817F81866D
:104B50008F8878747D85827E7E8486817D848A7D3F
:104B60007075808381818A897A74798182827E805E
:104B700082817B7C868477727A827F788289807456
:104B8000757D7D7F7979817F7D7A7E848076767D63
:104B9000807B7D83857B727B7F827F787E83817C37
:104BA0007D828781737B85807F8387887B767E8308
:104BB00084807F7F84847F8289897B737D848382E4
:104BC000858B8276798184827F7F84837E7F8387D1
:104BD00082747582848284888A80777B7D7E827FDE
:104BE0007F8487838081837E7376828785858886AC
:104BF0007E777A7D83807A7F8789837D8084766CD7
:104C0000788587868588867772767E847F7D8285A3
:104C100084807B817E6E6E7E85858484887F7172C0
:104C20007A7E807D7C8488827B7C81796C73858BA5
:104C3000878387867B747A8083827F82898A847B5C
:104C40007D8379727E898C8683898476757A828960
:104C5000827E858985807A80817270818B8682854B
:104C6000877C71737B85847D7F848683787A837C5F
:104C70006F75868B86808588796F748187807C824A
:104C800089897E78828478717C8A8D85838C877708
:104C9000727D86867F7E888A867E7A84847572801D
:104CA0008C877F868D806F717E85807980868580F8
:104CB0007A7D837C6F738187827E8688776D727E32
:104CC000827D7C8285827E7A7B7F796F78878880FF
:104CD000818A85736C7782817F828788827C7B7EE4
:104CE0007F77717F8D8D85858B83726C77828582CE
:104CF000838B8A857D797F807472818D8C84888D89
:104D0000816F6D7A828283868B877E7C7D807C71C9
:104D100074828A86828A8D7B6A6F80827E80888E8A
:104D2000857D7A7E81787379868B84828D8B776F8F
:104D300076838680828A8A817B7B7F837B777D8670
:104D40008A83838D87726D7B87867D8089877B765A
:104D50007E817D77788287837F848B816E6D7C876F
:104D6000868185898679727C827C7679838C87803E
:104D7000858C7F696D7F8882818A8B847A777F803A
:104D800077757E86898884868A7D6D6E7C83838232
:104D90008A8C837B777E7F75737C84888583888704
:104DA000796E717B7F7F848988827E7A7A7C78763F
:104DB0007A8186858082888172707E818082888AED
:104DC000837D7E817F7D7C7F848585858483837DD3
:104DD000787E8486878686807D7D7C8182818486BC
:104DE0008686807F7F7C7A7B7D83888A8A817878BB
:104DF00078777A81858382858882777779787578E4
:104E000083888B8A827A727076737A8987818488A4
:104E1000877B6E737C78747D8B938D8480797371BE
:104E2000727882878687898A8274717878787984A3
:104E3000918F87817E7972737A7E8586848E8C814C
:104E40007F78737A7979838A8C8A84817E76717887
:104E5000807E85898A8D847F7D74767D8081818B3B
:104E60008C85837F7B75757D7E7E898C888380842D
:104E70007A6D7985847E7F8A8C827B7F7C75777F53
:104E800080828A88837D7C8179717F88857E7E8A15
:104E9000877977808078778286878683807A7B7B24
:104EA00076778388857E8288807679827E7678851B
:104EB000868286857F7B777976788889837D8288EC
:104EC0007E747C847B747A85878387887C77767808
:104ED0007876888E83797F867C777D827B6F7887F2
:104EE000858588857C75797D7577898F83747E8AC1
:104EF00081797E837C71778C8A828C8B7E76797FB8
:104F00007A788790877C818C857A7D827B747D8B93
:104F10008B868A8E80747A807D78848F8C7E7D8A61
:104F20008379797D7E74788A8A868A897F73727C98
:104F30007773848D8A7C798A8373757E7C7273869D
:104F40008F838489807272797779828B897B788864
:104F500086797880817073888F8681888374717E6A
:104F6000817E82898C7E7784877D7B7E8277708745
:104F70009283818885756F7F867D7C868C80757E27
:104F80008981777F8278707E8C837D878879727B38
:104F9000807C79828C83777B88877A7C867C6E772D
:104FA000898A81848B83727581817E7E89897D76F1
:104FB000858D827C8383716F818E85828C867774E8
:104FC0007C82817B828780737E90877D8183756CF4
:104FD000788A8A83888A7E73777F827C7E878476CC
:104FE0007B90887C7E827A696F898F8185908674B8
:104FF000727D847D7A868A7A768A8D7D7B827F6EC9
:105000006C8493837F8A88776D79848278808B7DA6
:1050100072818D817A7F8374687A8E857A838C7EA3
:105020006C768785767A888271768D8A7C7F897E98
:1050300067708C8C797E928D7372858A7A72848A7D
:1050400078708992828089846B668391817D929940
:105050007B6C7F8D826E7B8F83718295897F858843
:1050600073627792887B8D9A8368768A8770708B5B
:1050700089737791907E7C867A636E8B8E7B829427
:105080008E6E6B838A766A818F7D71889584778036
:10509000826B667F9282798F977C677B8C806B7640
:1050A000918A737B958F797985776676918C7A85ED
:1050B0009888696E8988706D8A94796E89967F72F6
:1050C0007F816C6B8593817A8F9071647E8E7D6910
:1050D0007B97886C79968F747586786778928D79CE
:1050E000859685686F8C8B716F8E95776C8A9982A7
:1050F0007180836E6E8690807C9291716680907BC9
:105100006A7F98876B799890747586796A798D8AA9
:105110007A86968267718E886E709095756B8B9A81
:105120007F708086716F8490827E93927466819086
:105130007B6C7E99886C7A988E7477867E6C788C7E
:105140008A7B889683686E8B876F708F94756B8669
:10515000957D6E7F87716D808D807A908E73647E71
:105160008F786B8096846B7794897076887E6B7568
:10517000898A7B8896856A6E8A8570738F9376702C
:105180008A947F74838A756E808C837F9394796A06
:105190007F8D7A6D8197897079938B76798A826D0C
:1051A0007185887E8796896E7086836F728E957BF7
:1051B0006E83918074818A776A798A847F8E937CEA
:1051C0006A76867A6D80988D72758B8B78778783F7
:1051D0006F7082898286948D716E818272758D94D2
:1051E0007F707E8D807581877A6F788383818E94BE
:1051F0007D6D7784797081938B757385887B7B84D3
:105200008274727E8381879288726D7E8173788BBF
:10521000937F6F7B89837A7E857E72768384828E8C
:10522000907D6F78857C7481928C7572868A7E7D84
:10523000858577737D858385928A75717F81747783
:105240008A9180707C8C847B81857A71778283815E
:105250008E917C6E79827A73829289757586847B51
:1052600080857E717683847E8893856F72807E745C
:105270007D918E7A7483867E7F8782737584837D29
:1052800088908A76727F82777B8C8D7F7780878209
:10529000808683777481847F838B8B7E757C817914
:1052A0007B858A82787D85817F868377747F827E05
:1052B00080868A80767A7E797F8482827C797E7FFE
:1052C0007F847F78777E7E7F818488827976787C00
:1052D000837F8086807B7C7E83817D7C7A7A7F86DB
:1052E000817F84878074748089807C83847E797ECA
:1052F00084827E7E7C7C8387827E828884767484AE
:105300008F81767F8A84787A848480807F8281828C
:1053100082808084837878848C80787F8A8578798D
:1053200082827E7C82857E7E82827F7C7E817F7E81
:105330008280818284827D7A7B7D7D8184837E7B75
:1053400082877D767E8680777B8488837C80817966
:1053500076798285807E7E7F807F7B797E837C7676
:105360007E88887D777F8177738189847D7B838345
:105370007A767F827F7E7D808485827E7B7D7B7A4C
:105380007D8087857B80887C747E84827B7A85881B
:10539000807F848078797F848181827F83857E7A13
:1053A0007F8485797886888080838380797C8185F5
:1053B000867B79878A7E78828A82747C87848588D6
:1053C00085827D7E7F7C82887D788489847E8187CA
:1053D0007E73797E828788857F7D7B787B858075EB
:1053E0007B85837F818A8474747D7B7A84898481C0
:1053F0007C7A767B817C787D82817E81877F7576E1
:10540000787D8184848384817A79807E7A7E8182AA
:10541000828382817E7C77768187837F8485807A90
:10542000808479798182808588837D7C7F78788388
:1054300085838081817D7E827E7A7C7D7A7F88866D
:10544000807E837C717D84817F818682797E837C6E
:105450007A807D798188887F7F857A778083818053
:1054600082868582827D7A7E817D7E878783808425
:10547000827A7E827E7F7F82858485847B797E7C32
:105480007D8587847F7F847B7782827D7F80828019
:1054900081837D797A7C797F88867D7A8080767633
:1054A00080827C7D83837F7F7D797C7F7E7E81850A
:1054B000837C7C7C7C7C7D7E7D7F848482807F7805
:1054C000777E80828488877B797E7D7B8086847FDF
:1054D00080868681807C787B828385888A847677C3
:1054E0007F7C7B8389848085837C7E7F7B767F88BD
:1054F000848289897A737B7D787B878B82838A8398
:1055000079787A7876808C8A878A8678757A7978BD
:105510007D8485848A89837F7A746F7480888A8B7E
:105520008D857B797874757E8181878D8983807B79
:10553000716E757D83898E8B85817B736E747A7AAB
:105540007E8B918A83827C6F6C737A7F848B8F8948
:1055500082807A7171767A7F848B8D88837B78786C
:10556000767A8081838789837F7E7E7A737883864B
:10557000838488847B777C807E808483838482801C
:105580007D7E817E7E80858682817E7D7C777A832A
:1055900084808387817A7C807C767D88867F818603
:1055A0008279797D7E7C7E85838183837D787B7E15
:1055B0007F7D818989827D807F77777C80838184EC
:1055C00085827E7D7E7979808483808387837C7BDE
:1055D0007F7D7C7F82848283847F7C7D82817C82CC
:1055E00086827E8183807E7D82817E82807F7F7DB8
:1055F0007E7F808184817C80807F7C7C7F7D7E80BB
:10560000818081817C7B7A7B7D7E818380817E7AB3
:105610007D7C7E7E7B7E82817E8084817C797C7EA7
:105620007D8181828481827D7C83827D7C7F818477
:1056300083818486807C7B7E807E7D818686868257
:105640007F817E7C7B7C7F8387848389857E79775D
:105650007B7C7D81868A8C8A7F7A7D7B777A818349
:1056600085878483837F7A7371797F8484878F8B26
:105670007D74777B77787E858483867F7F807A7A56
:105680007475808680828E8B7F76748080767A8433
:10569000867E7F8482807D7E7D767881837F818C0B
:1056A000887D787C857D747E867E7A838884807F01
:1056B000827C737982837E848D887F7B7F81777201
:1056C00080887D7E8785808082827A737B867D7BE1
:1056D0008B8F867D797F80727689877A80858682B6
:1056E00081858278727F827A848F8C837A7A817BBB
:1056F000707C8A7C79878C877F81817C6F708383C3
:105700007F89908D8076797B756F7D887F818D8C88
:105710007F7C7D7B756A768B86808C9186787479A8
:105720007E74738A8C7F848E84797B807F756F848E
:105730008F81808B8D8076767E7F757C8B867C8357
:105740008A81797E8480747486877C7E8B8C7B735F
:105750007A807B727E897F7A868B7C788280777074
:105760007887827A84908978767D807473868A7D42
:105770007E8B897A79807F77738089817E898D7E1F
:10578000797D7D7A747E8A847C848E7F7481847B2B
:10579000737887867C808F8C7B797F7F7875818614
:1057A0007F7D8A8D7B7C868277757E847D7A8790EB
:1057B000847A80817C757783827D828F897B8285E4
:1057C0007B747982827C808B8C817F847E78757CEF
:1057D000838281868C827C83827A777C81807E82C0
:1057E00089887F7E7E7A77767C84837F84857C7BC4
:1057F000807D76777B7F7F7E86897F797C7A7676DF
:105800007980827F8086837A797F7A747B818283B4
:105810008387857E7B7C7E787A828383848586817C
:105820007A7D7E7979838382858487817E8480797D
:10583000797E817F818487868183837F7C7C7E7E65
:105840007F8387868486888177797B78797C858950
:10585000878885837F767778767D858785888A8235
:105860007D79797874787E8389898884807D7A7A55
:105870007979818484848586807E7D7E7D787A7E38
:1058800080828383807E80807C7D80817D7B7D8122
:10589000807E82817F7D7E7E7A7C80817E7C80841A
:1058A000807F82827E7A797C7F7F8184817F7F7F07
:1058B0007E7C7D80807B7C8686818385827D7B7FEC
:1058C000827F808584827D80827B7A7F827D7B80DF
:1058D00085848183827D797B807F7F8182817F7EC9
:1058E000817E797C81827D7D84857F7E8480797BC9
:1058F0007F81808084827D7D81817C7C81837E7CB0
:1059000084857F7D82857E7B8083817E82847F7E8D
:105910007F82807C7F827E798087837F8184817B88
:105920007E82817C7D84817E8184837C7B7F7F7984
:105930007A8687808184827B7B7D7E7F7A7F857C6F
:105940007D87867C7B7E7E7B797F88827E8281805C
:105950007E7D817F7B7E827E7D808384817F807C53
:10596000797E81817F7F80807E7F85837D7D7F7E44
:105970007B7B82858181837D7A7C7D807F7C828434
:105980007C7F8683807D7A7E7E7B84898280817C19
:105990007C7A7B84817C87867F818080827A798112
:1059A0007E7E878682837D7C7F767C87817F8584EF
:1059B00083807C81807A7C7F7E7F8081867F7D84EE
:1059C0007D7581837E827E7F867B7787857C7F7EE7
:1059D0007E807A80887F7D847E7B807D8283777FD6
:1059E00087787A857F8080798084777B86807D81C7
:1059F0007D81827883857881857C7E7E7D878178B4
:105A000087877A7E807D80797D877D7C86847F8094
:105A10007D7E7C747D897F7E87858380777D7F789E
:105A20007D837F828382867E7A847E727D8480827B
:105A30007F818C817784837B7F7E80847E82888057
:105A40008187817D7C7C817F79828C838086828343
:105A500082797F80787F8684858482847C77807E4B
:105A6000777E8484857E7D877E75807D79807D7F4D
:105A7000817D82837A7A81817D7B7C8382797D833B
:105A80007D7E81818481797D7D7880837E7F7F802A
:105A9000847D7C82807A7D7E82857F82887F7B7F09
:105AA0007C7B81818382797E837E7E8182817D7A07
:105AB00080817C80827D7F817D82807D827E767CFC
:105AC000817F817F8284807E7F7E7C7E7D80827EDE
:105AD0008286807F817E7E7F7D7F827D82858283BC
